:020000040000fa
:020000040c00ee
:10000000f81f0020ed02000c6304000ce904000c52
:1000100000000000000000000000000000000000e0
:10002000000000000000000000000000eb04000cd5
:100030000000000000000000eb04000ceb04000cca
:10004000eb04000ceb04000ceb04000c8901000c29
:10005000eb04000ceb04000ceb04000ceb04000cb4
:10006000eb04000ceb04000ceb04000ceb04000ca4
:0c007000eb04000ceb04000ceb04000c93
:020000040000fa
:020000040c00ee
:10007c00f8b5c046f8bc08bc9e467047cd02000cd3
:10008c00f8b5c046f8bc08bc9e467047a502000ceb
:020000040000fa
:020000040c00ee
:10009c001b4a137801210b431370110001224b688a
:1000ac001a42fcd1164980239b01cb6100230b62c1
:1000bc0008330b61134b10221a819a821a84032085
:1000cc0098851a8741301a520c301a520c301a5239
:1000dc000c301a520c301a520c301a520c301a5274
:1000ec000c301a520c301a520c301a520c301a5264
:1000fc000b780e3a13430b704b681a42fcd17047c5
:08010c00002800400000002063
:020000040000fa
:020000040c00ee
:10011400164b80229a627e3a9a61154b9022920184
:100124005a62190010224b691a42fcd0114b124a30
:100134001a62190004224b681a42fcd10d4a80232a
:100144004021d15010004031402243581a42fcd083
:10015400084a84234021d15010004431402243589e
:100164001a42fcd0054b064ada617047001400407d
:1001740000100040001c0040000101000008004085
:04018400010800006e
:020000040000fa
:020000040c00ee
:10018800f8b50024144d154e03e077610134102ca6
:1001980020d063001b199b00eb181b899bb2a1b2ee
:1001a8008b42f3d173690127a7401f42eed00a4959
:1001b80063001b199b005b58002be6d00800630006
:1001c80019198900411849681b199b001b58080018
:1001d8009847dae7f8bdc046000000200028004034
:020000040000fa
:020000040c00ee
:1001e800100100201c000000000000003401002065
:1001f800010000000000000000000020c000000016
:10020800000000003501002001000000000000008f
:100218002c0100200400000000000000c0000020a5
:100228005000000000000000300100200400000021
:10023800000000000000000000000000666666661e
:020000040000fa
:020000040c00ee
:1002480000230e4a10b513600d4a13600d4a13605f
:100258000d4a13600d4a13600d4a5362136101334e
:10026800936000f042f900f040f90a4c0a4b9c42b6
:1002780000d310bd08cc9847f8e7c04630010020ed
:10028800cc000020c8000020c0000020c4000020ce
:0c029800d00000208800000c8c00000c3e
:020000040000fa
:020000040c00ee
:1002a40010b5064c2378002b07d1054b002b02d048
:1002b400044800e000bf0123237010bd100100209a
:1002c4000000000000000000044b10b5002b03d018
:1002d4000349044800e000bf10bdc0460000000010
:0802e4001401002000000000dd
:020000040000fa
:020000040c00ee
:1002ec0010b50a4b98470a4b984700f01df8094b7c
:1002fc00ff229343084a9360084b9847084b984752
:10030c00084b984700f0bef8fee7c046ed04000c21
:10031c00ed04000c0000000c00ed00e04902000ca4
:08032c00ed04000ced04000ccf
:020000040000fa
:020000040c00ee
:1003340010b50b480168002905d14368002b02d190
:1003440000f0d4f810bd04008368064a9bb20c3454
:100354009b009b5842682000984780002018e9e7da
:08036400e801000c7c04000c10
:020000040000fa
:020000040c00ee
:10036c0010b5094b1b78002b07d0022b0ad100f0db
:10037c00b8f8054b01221a7004e000f01df8024b8e
:0c038c0001221a7010bdc0463401002090
:020000040000fa
:020000040c00ee
:1003980030b5094b44002418a4001b191b899bb2d3
:1003a800834200d030bd044b44002518ad00e9500d
:0c03b8005b195a60f6e7c0460000002008
:020000040000fa
:020000040c00ee
:1003c40010b500f04df8064900220320fff7e2ffc4
:1003d400032000f06df8034b01221a7010bdc046d3
:0803e400dd04000c34010020cf
:020000040000fa
:020000040c00ee
:1003ec00bff35f8f62b6064ac020800013581b0211
:1003fc001b0ac02109060b431350082313607047d6
:04040c0000e100e02b
:020000040000fa
:020000040c00ee
:10041000002310b5934206d103201840421e90419c
:0e0420009b08c01810bdc45ccc540133f2e739
:020000040000fa
:020000040c00ee
:10042e008223db058022042199500022be315a54ca
:0c043e0001310120585412395a54704703
:020000040000fa
:020000040c00ee
:10044a0010b5fff7effffff760fe00f036f8fff791
:08045a0020fefff7c6ff10bdf4
:020000040000fa
:020000040c00ee
:02046200fee7b3
:020000040000fa
:020000040c00ee
:100464008222d20598230421d150024b01221a7012
:080474007047c046350100206d
:020000040000fa
:020000040c00ee
:10047c00a304000c1104000ce504000ce504000cb2
:04048c00e504000c77
:020000040000fa
:020000040c00ee
:1004900010b50020fff7d9fffff794fffff766ffc5
:0204a000fce777
:020000040000fa
:020000040c00ee
:1004a2008a18914201d10020704700230b7001315c
:0204b200f7e76a
:020000040000fa
:020000040c00ee
:1004b40001238340014a13617047c046002800406d
:020000040000fa
:020000040c00ee
:0c04c4008423db058d2292001a62704731
:020000040000fa
:020000040c00ee
:0c04d0008222d2059c230421d1507047e9
:020000040000fa
:020000040c00ee
:0804dc0010b5fff7f7ff10bd9a
:020000040000fa
:020000040c00ee
:0404e400002070473d
:020000040000fa
:020000040c00ee
:0204e800fee72d
:020000040000fa
:020000040c00ee
:0204ea00fee72b
:020000040000fa
:020000040c00ee
:0204ec00704757
:020000040000fa
:020000040c00ee
:0204ee00704755
:020000040000fa
:020000040c00ee
:0204f000704753
:020000040000fa
:020000040c00ee
:0204f200704751
:020000040000fa
:020000040d00ed
:0404000000000000f8
:020000040000fa
:020000040d00ed
:04040800fffffffff4
:020000040000fa
:020000040d00ed
:04041000f100f0ff08
:020000040000fa
:020000040d00ed
:040418009deefc70e9
:020000040000fa
:020000040d00ed
:040420003ef8ffffa4
:020000040000fa
:020000040d00ed
:0404280060f0e5ff9c
:00000001FF
