:020000040000fa
:020000040c00ee
:10000000f81f00204101000c7f02000cbd02000c13
:1000100000000000000000000000000000000000e0
:10002000000000000000000000000000bf02000c03
:100030000000000000000000bf02000cbf02000c26
:10004000bf02000cbf02000cbf02000cbf02000c7c
:10005000bf02000cbf02000cbf02000cbf02000c6c
:10006000bf02000cbf02000cbf02000cbf02000c5c
:0c007000bf02000cbf02000cbf02000c1d
:020000040000fa
:020000040c00ee
:10007c00f8b5c046f8bc08bc9e4670472101000c80
:10008c00f8b5c046f8bc08bc9e467047f900000c99
:020000040000fa
:020000040c00ee
:10009c0000230e4a10b513600d4a13600d4a13600d
:1000ac000d4a13600d4a13600d4a536213610133fc
:1000bc00936000f002f900f000f90a4c0a4b9c42e4
:1000cc0000d310bd08cc9847f8e7c046700000205c
:1000dc000c0000200800002000000020040000207c
:0c00ec00100000208800000c8c00000cac
:020000040000fa
:020000040c00ee
:1000f80010b5064c2378002b07d1054b002b02d0f6
:10010800044800e000bf0123237010bd5000002008
:100118000000000000000000044b10b5002b03d0c5
:100128000349044800e000bf10bdc04600000000bd
:0801380054000020000000004b
:020000040000fa
:020000040c00ee
:1001400010b50a4b98470a4b984700f03df8094b09
:10015000ff229343084a9360084b9847084b9847ff
:10016000084b984700f09ff8fee7c046c302000c1a
:10017000c302000c0000000c00ed00e09d00000c2c
:08018000c302000cc302000cd5
:020000040000fa
:020000040c00ee
:100188000b4b80229a627e3a9a610a4b9022920126
:100198005a62190010224b691a42fcd0064b074ad2
:1001a8001a62190004224b681a42fcd17047c046f3
:1001b8000014004000100040001c00400001010035
:020000040000fa
:020000040c00ee
:1001c80010b50b480168002905d14368002b02d1fe
:1001d80000f074f810bd04008368064a9bb20c3422
:1001e8009b009b5842682000984780002018e9e748
:0801f8000002000c8002000c63
:020000040000fa
:020000040c00ee
:10020000500000202000000000000000000000203e
:1002100050000000000000007000002004000000fa
:100220000000000000000000000000006666666636
:020000040000fa
:020000040c00ee
:10023000002310b5934206d103201840421e90417e
:0e0240009b08c01810bdc45ccc540133f2e71b
:020000040000fa
:020000040c00ee
:10024e008223db058022042199500022be315a54ac
:0c025e0001310120585412395a547047e5
:020000040000fa
:020000040c00ee
:10026a0010b5fff7effffff78aff00f024f800f060
:04027a001af810bda1
:020000040000fa
:020000040c00ee
:02027e00fee799
:020000040000fa
:020000040c00ee
:100280009502000c3102000cb902000cb902000cfe
:04029000b902000ca3
:020000040000fa
:020000040c00ee
:100294008a18914201d10020704700230b7001316c
:0202a400f7e77a
:020000040000fa
:020000040c00ee
:0a02a60010b50020fff7defffee7b1
:020000040000fa
:020000040c00ee
:0802b000bff35f8f62b67047d7
:020000040000fa
:020000040c00ee
:0402b800002070476b
:020000040000fa
:020000040c00ee
:0202bc00fee75b
:020000040000fa
:020000040c00ee
:0202be00fee759
:020000040000fa
:020000040c00ee
:0202c000704785
:020000040000fa
:020000040c00ee
:0202c200704783
:020000040000fa
:020000040c00ee
:0202c400704781
:020000040000fa
:020000040c00ee
:0202c60070477f
:020000040000fa
:020000040d00ed
:0404000000000000f8
:020000040000fa
:020000040d00ed
:04040800fffffffff4
:020000040000fa
:020000040d00ed
:04041000f100f0ff08
:020000040000fa
:020000040d00ed
:040418009deefc70e9
:020000040000fa
:020000040d00ed
:040420003ef8ffffa4
:020000040000fa
:020000040d00ed
:0404280060f0e5ff9c
:00000001FF
